{
  "contractName": "RealEstateTransaction",
  "abi": [
    {
      "inputs": [
        {
          "internalType": "address payable",
          "name": "_seller",
          "type": "address"
        }
      ],
      "stateMutability": "nonpayable",
      "type": "constructor"
    },
    {
      "anonymous": false,
      "inputs": [
        {
          "indexed": true,
          "internalType": "address",
          "name": "seller",
          "type": "address"
        },
        {
          "indexed": false,
          "internalType": "uint256",
          "name": "amount",
          "type": "uint256"
        }
      ],
      "name": "FundsReleased",
      "type": "event"
    },
    {
      "anonymous": false,
      "inputs": [
        {
          "indexed": true,
          "internalType": "address",
          "name": "seller",
          "type": "address"
        },
        {
          "indexed": false,
          "internalType": "uint256",
          "name": "minPrice",
          "type": "uint256"
        }
      ],
      "name": "MinPriceSet",
      "type": "event"
    },
    {
      "anonymous": false,
      "inputs": [
        {
          "indexed": true,
          "internalType": "address",
          "name": "seller",
          "type": "address"
        },
        {
          "indexed": true,
          "internalType": "address",
          "name": "buyer",
          "type": "address"
        },
        {
          "indexed": false,
          "internalType": "uint256",
          "name": "offerPrice",
          "type": "uint256"
        }
      ],
      "name": "OfferAccepted",
      "type": "event"
    },
    {
      "anonymous": false,
      "inputs": [
        {
          "indexed": true,
          "internalType": "address",
          "name": "buyer",
          "type": "address"
        },
        {
          "indexed": false,
          "internalType": "uint256",
          "name": "offerPrice",
          "type": "uint256"
        }
      ],
      "name": "OfferMade",
      "type": "event"
    },
    {
      "anonymous": false,
      "inputs": [
        {
          "indexed": true,
          "internalType": "address",
          "name": "seller",
          "type": "address"
        },
        {
          "indexed": true,
          "internalType": "address",
          "name": "buyer",
          "type": "address"
        },
        {
          "indexed": false,
          "internalType": "uint256",
          "name": "offerPrice",
          "type": "uint256"
        }
      ],
      "name": "OfferRejected",
      "type": "event"
    },
    {
      "anonymous": false,
      "inputs": [
        {
          "indexed": true,
          "internalType": "address",
          "name": "seller",
          "type": "address"
        },
        {
          "indexed": true,
          "internalType": "address",
          "name": "buyer",
          "type": "address"
        }
      ],
      "name": "PropertyTransferred",
      "type": "event"
    },
    {
      "inputs": [],
      "name": "buyer",
      "outputs": [
        {
          "internalType": "address",
          "name": "",
          "type": "address"
        }
      ],
      "stateMutability": "view",
      "type": "function",
      "constant": true
    },
    {
      "inputs": [],
      "name": "fundsReleased",
      "outputs": [
        {
          "internalType": "bool",
          "name": "",
          "type": "bool"
        }
      ],
      "stateMutability": "view",
      "type": "function",
      "constant": true
    },
    {
      "inputs": [],
      "name": "minPrice",
      "outputs": [
        {
          "internalType": "uint256",
          "name": "",
          "type": "uint256"
        }
      ],
      "stateMutability": "view",
      "type": "function",
      "constant": true
    },
    {
      "inputs": [],
      "name": "offerAccepted",
      "outputs": [
        {
          "internalType": "bool",
          "name": "",
          "type": "bool"
        }
      ],
      "stateMutability": "view",
      "type": "function",
      "constant": true
    },
    {
      "inputs": [],
      "name": "offerPrice",
      "outputs": [
        {
          "internalType": "uint256",
          "name": "",
          "type": "uint256"
        }
      ],
      "stateMutability": "view",
      "type": "function",
      "constant": true
    },
    {
      "inputs": [],
      "name": "propertyTransferred",
      "outputs": [
        {
          "internalType": "bool",
          "name": "",
          "type": "bool"
        }
      ],
      "stateMutability": "view",
      "type": "function",
      "constant": true
    },
    {
      "inputs": [],
      "name": "seller",
      "outputs": [
        {
          "internalType": "address payable",
          "name": "",
          "type": "address"
        }
      ],
      "stateMutability": "view",
      "type": "function",
      "constant": true
    },
    {
      "inputs": [
        {
          "internalType": "uint256",
          "name": "_minPrice",
          "type": "uint256"
        }
      ],
      "name": "setMinPrice",
      "outputs": [],
      "stateMutability": "nonpayable",
      "type": "function"
    },
    {
      "inputs": [],
      "name": "getMinPrice",
      "outputs": [
        {
          "internalType": "uint256",
          "name": "",
          "type": "uint256"
        }
      ],
      "stateMutability": "view",
      "type": "function",
      "constant": true
    },
    {
      "inputs": [],
      "name": "makeOffer",
      "outputs": [],
      "stateMutability": "payable",
      "type": "function",
      "payable": true
    },
    {
      "inputs": [],
      "name": "getOffer",
      "outputs": [
        {
          "internalType": "address",
          "name": "",
          "type": "address"
        },
        {
          "internalType": "uint256",
          "name": "",
          "type": "uint256"
        }
      ],
      "stateMutability": "view",
      "type": "function",
      "constant": true
    },
    {
      "inputs": [],
      "name": "acceptOffer",
      "outputs": [],
      "stateMutability": "nonpayable",
      "type": "function"
    },
    {
      "inputs": [],
      "name": "rejectOffer",
      "outputs": [],
      "stateMutability": "nonpayable",
      "type": "function"
    },
    {
      "inputs": [],
      "name": "transferProperty",
      "outputs": [],
      "stateMutability": "nonpayable",
      "type": "function"
    },
    {
      "inputs": [],
      "name": "releaseFunds",
      "outputs": [],
      "stateMutability": "nonpayable",
      "type": "function"
    }
  ],
  "bytecode": "0x60806040523480156200001157600080fd5b506040516200169c3803806200169c8339818101604052810190620000379190620000e8565b806000806101000a81548173ffffffffffffffffffffffffffffffffffffffff021916908373ffffffffffffffffffffffffffffffffffffffff160217905550506200011a565b600080fd5b600073ffffffffffffffffffffffffffffffffffffffff82169050919050565b6000620000b08262000083565b9050919050565b620000c281620000a3565b8114620000ce57600080fd5b50565b600081519050620000e281620000b7565b92915050565b6000602082840312156200010157620001006200007e565b5b60006200011184828501620000d1565b91505092915050565b611572806200012a6000396000f3fe6080604052600436106100e85760003560e01c8063967deb151161008a578063e31a811611610059578063e31a81161461027c578063e45be8eb146102a7578063eb62df61146102d2578063efd998ad146102e9576100e8565b8063967deb15146101e35780639fb2a15f1461020e578063b564e92614610225578063cdc2895c14610250576100e8565b80635ea8cd12116100c65780635ea8cd121461014d5780636548e98a1461017657806369d89575146101a15780637150d8ae146101b8576100e8565b806308551a53146100ed5780633bf19e29146101185780634e1b623e14610143575b600080fd5b3480156100f957600080fd5b50610102610300565b60405161010f9190610ea1565b60405180910390f35b34801561012457600080fd5b5061012d610324565b60405161013a9190610ed5565b60405180910390f35b61014b61032a565b005b34801561015957600080fd5b50610174600480360381019061016f9190610f21565b610407565b005b34801561018257600080fd5b5061018b61050d565b6040516101989190610f69565b60405180910390f35b3480156101ad57600080fd5b506101b6610520565b005b3480156101c457600080fd5b506101cd61074b565b6040516101da9190610fa5565b60405180910390f35b3480156101ef57600080fd5b506101f8610771565b6040516102059190610f69565b60405180910390f35b34801561021a57600080fd5b50610223610784565b005b34801561023157600080fd5b5061023a61091a565b6040516102479190610f69565b60405180910390f35b34801561025c57600080fd5b5061026561092d565b604051610273929190610fc0565b60405180910390f35b34801561028857600080fd5b506102916109ec565b60405161029e9190610ed5565b60405180910390f35b3480156102b357600080fd5b506102bc6109f6565b6040516102c99190610ed5565b60405180910390f35b3480156102de57600080fd5b506102e76109fc565b005b3480156102f557600080fd5b506102fe610be1565b005b60008054906101000a900473ffffffffffffffffffffffffffffffffffffffff1681565b60035481565b60025434101561036f576040517f08c379a00000000000000000000000000000000000000000000000000000000081526004016103669061106c565b60405180910390fd5b33600160006101000a81548173ffffffffffffffffffffffffffffffffffffffff021916908373ffffffffffffffffffffffffffffffffffffffff160217905550346003819055503373ffffffffffffffffffffffffffffffffffffffff167fa0370a2f3ad08320e6280ae547e0f0d71569780fe26a66ff112424459d4f6a59346040516103fd9190610ed5565b60405180910390a2565b60008054906101000a900473ffffffffffffffffffffffffffffffffffffffff1673ffffffffffffffffffffffffffffffffffffffff163373ffffffffffffffffffffffffffffffffffffffff1614610495576040517f08c379a000000000000000000000000000000000000000000000000000000000815260040161048c906110fe565b60405180910390fd5b8060028190555060008054906101000a900473ffffffffffffffffffffffffffffffffffffffff1673ffffffffffffffffffffffffffffffffffffffff167f8cc173ddbc6a03ca6a8ff63f6bca1d3d997c72d2cb5f617c6888005c699bef3b826040516105029190610ed5565b60405180910390a250565b600460019054906101000a900460ff1681565b600460019054906101000a900460ff1661056f576040517f08c379a000000000000000000000000000000000000000000000000000000000815260040161056690611190565b60405180910390fd5b60008054906101000a900473ffffffffffffffffffffffffffffffffffffffff1673ffffffffffffffffffffffffffffffffffffffff163373ffffffffffffffffffffffffffffffffffffffff1614806106165750600160009054906101000a900473ffffffffffffffffffffffffffffffffffffffff1673ffffffffffffffffffffffffffffffffffffffff163373ffffffffffffffffffffffffffffffffffffffff16145b610655576040517f08c379a000000000000000000000000000000000000000000000000000000000815260040161064c90611222565b60405180910390fd5b60008054906101000a900473ffffffffffffffffffffffffffffffffffffffff1673ffffffffffffffffffffffffffffffffffffffff166108fc6003549081150290604051600060405180830381858888f193505050501580156106bd573d6000803e3d6000fd5b506001600460026101000a81548160ff02191690831515021790555060008054906101000a900473ffffffffffffffffffffffffffffffffffffffff1673ffffffffffffffffffffffffffffffffffffffff167f221c08a06b07a64803b3787861a3f276212fcccb51c2e6234077a9b8cb13047a6003546040516107419190610ed5565b60405180910390a2565b600160009054906101000a900473ffffffffffffffffffffffffffffffffffffffff1681565b600460009054906101000a900460ff1681565b60008054906101000a900473ffffffffffffffffffffffffffffffffffffffff1673ffffffffffffffffffffffffffffffffffffffff163373ffffffffffffffffffffffffffffffffffffffff1614610812576040517f08c379a0000000000000000000000000000000000000000000000000000000008152600401610809906112b4565b60405180910390fd5b600460009054906101000a900460ff16610861576040517f08c379a000000000000000000000000000000000000000000000000000000000815260040161085890611320565b60405180910390fd5b6001600460016101000a81548160ff021916908315150217905550600160009054906101000a900473ffffffffffffffffffffffffffffffffffffffff1673ffffffffffffffffffffffffffffffffffffffff1660008054906101000a900473ffffffffffffffffffffffffffffffffffffffff1673ffffffffffffffffffffffffffffffffffffffff167f946b72ea82dd2cb8474df277536c2f452c2e20f89b1313a475c1ccfbf6bf1d9560405160405180910390a3565b600460029054906101000a900460ff1681565b60008060008054906101000a900473ffffffffffffffffffffffffffffffffffffffff1673ffffffffffffffffffffffffffffffffffffffff163373ffffffffffffffffffffffffffffffffffffffff16146109be576040517f08c379a00000000000000000000000000000000000000000000000000000000081526004016109b59061138c565b60405180910390fd5b600160009054906101000a900473ffffffffffffffffffffffffffffffffffffffff16600354915091509091565b6000600254905090565b60025481565b60008054906101000a900473ffffffffffffffffffffffffffffffffffffffff1673ffffffffffffffffffffffffffffffffffffffff163373ffffffffffffffffffffffffffffffffffffffff1614610a8a576040517f08c379a0000000000000000000000000000000000000000000000000000000008152600401610a819061141e565b60405180910390fd5b600073ffffffffffffffffffffffffffffffffffffffff16600160009054906101000a900473ffffffffffffffffffffffffffffffffffffffff1673ffffffffffffffffffffffffffffffffffffffff1603610b1b576040517f08c379a0000000000000000000000000000000000000000000000000000000008152600401610b129061148a565b60405180910390fd5b6001600460006101000a81548160ff021916908315150217905550600160009054906101000a900473ffffffffffffffffffffffffffffffffffffffff1673ffffffffffffffffffffffffffffffffffffffff1660008054906101000a900473ffffffffffffffffffffffffffffffffffffffff1673ffffffffffffffffffffffffffffffffffffffff167fc61554a8874c3c1f71da4d831e9effd4b5f892f7f89e2eb898dd63a57d4c4fb8600354604051610bd79190610ed5565b60405180910390a3565b60008054906101000a900473ffffffffffffffffffffffffffffffffffffffff1673ffffffffffffffffffffffffffffffffffffffff163373ffffffffffffffffffffffffffffffffffffffff1614610c6f576040517f08c379a0000000000000000000000000000000000000000000000000000000008152600401610c669061151c565b60405180910390fd5b600073ffffffffffffffffffffffffffffffffffffffff16600160009054906101000a900473ffffffffffffffffffffffffffffffffffffffff1673ffffffffffffffffffffffffffffffffffffffff1603610d00576040517f08c379a0000000000000000000000000000000000000000000000000000000008152600401610cf79061148a565b60405180910390fd5b600160009054906101000a900473ffffffffffffffffffffffffffffffffffffffff1673ffffffffffffffffffffffffffffffffffffffff166108fc6003549081150290604051600060405180830381858888f19350505050158015610d6a573d6000803e3d6000fd5b506000600160006101000a81548173ffffffffffffffffffffffffffffffffffffffff021916908373ffffffffffffffffffffffffffffffffffffffff1602179055506000600381905550600160009054906101000a900473ffffffffffffffffffffffffffffffffffffffff1673ffffffffffffffffffffffffffffffffffffffff1660008054906101000a900473ffffffffffffffffffffffffffffffffffffffff1673ffffffffffffffffffffffffffffffffffffffff167f427586ceff633b8618fa12ad2a5b9099c49c03d6f8fc4e50657a98edd564f6f0600354604051610e569190610ed5565b60405180910390a3565b600073ffffffffffffffffffffffffffffffffffffffff82169050919050565b6000610e8b82610e60565b9050919050565b610e9b81610e80565b82525050565b6000602082019050610eb66000830184610e92565b92915050565b6000819050919050565b610ecf81610ebc565b82525050565b6000602082019050610eea6000830184610ec6565b92915050565b600080fd5b610efe81610ebc565b8114610f0957600080fd5b50565b600081359050610f1b81610ef5565b92915050565b600060208284031215610f3757610f36610ef0565b5b6000610f4584828501610f0c565b91505092915050565b60008115159050919050565b610f6381610f4e565b82525050565b6000602082019050610f7e6000830184610f5a565b92915050565b6000610f8f82610e60565b9050919050565b610f9f81610f84565b82525050565b6000602082019050610fba6000830184610f96565b92915050565b6000604082019050610fd56000830185610f96565b610fe26020830184610ec6565b9392505050565b600082825260208201905092915050565b7f4f66666572207072696365206d757374206265206174206c656173742074686560008201527f206d696e696d756d2070726963652e0000000000000000000000000000000000602082015250565b6000611056602f83610fe9565b915061106182610ffa565b604082019050919050565b6000602082019050818103600083015261108581611049565b9050919050565b7f4f6e6c79207468652073656c6c65722063616e2073657420746865206d696e6960008201527f6d756d2070726963652e00000000000000000000000000000000000000000000602082015250565b60006110e8602a83610fe9565b91506110f38261108c565b604082019050919050565b60006020820190508181036000830152611117816110db565b9050919050565b7f50726f7065727479206d757374206265207472616e736665727265642066697260008201527f73742e0000000000000000000000000000000000000000000000000000000000602082015250565b600061117a602383610fe9565b91506111858261111e565b604082019050919050565b600060208201905081810360008301526111a98161116d565b9050919050565b7f4f6e6c79206275796572206f722073656c6c65722063616e2072656c6561736560008201527f2066756e64732e00000000000000000000000000000000000000000000000000602082015250565b600061120c602783610fe9565b9150611217826111b0565b604082019050919050565b6000602082019050818103600083015261123b816111ff565b9050919050565b7f4f6e6c79207468652073656c6c65722063616e207472616e736665722074686560008201527f2070726f70657274792e00000000000000000000000000000000000000000000602082015250565b600061129e602a83610fe9565b91506112a982611242565b604082019050919050565b600060208201905081810360008301526112cd81611291565b9050919050565b7f4f66666572206d7573742062652061636365707465642066697273742e000000600082015250565b600061130a601d83610fe9565b9150611315826112d4565b602082019050919050565b60006020820190508181036000830152611339816112fd565b9050919050565b7f4f6e6c79207468652073656c6c65722063616e2063616c6c20746869732e0000600082015250565b6000611376601e83610fe9565b915061138182611340565b602082019050919050565b600060208201905081810360008301526113a581611369565b9050919050565b7f4f6e6c79207468652073656c6c65722063616e2061636365707420746865206f60008201527f666665722e000000000000000000000000000000000000000000000000000000602082015250565b6000611408602583610fe9565b9150611413826113ac565b604082019050919050565b60006020820190508181036000830152611437816113fb565b9050919050565b7f4e6f206f66666572206d6164652e000000000000000000000000000000000000600082015250565b6000611474600e83610fe9565b915061147f8261143e565b602082019050919050565b600060208201905081810360008301526114a381611467565b9050919050565b7f4f6e6c79207468652073656c6c65722063616e2072656a65637420746865206f60008201527f666665722e000000000000000000000000000000000000000000000000000000602082015250565b6000611506602583610fe9565b9150611511826114aa565b604082019050919050565b60006020820190508181036000830152611535816114f9565b905091905056fea2646970667358221220043dcc88bed65b792160fe77b2ee9271be73813fe4a59ca948ed2f1995d4dad064736f6c634300080d0033",
  "immutableReferences": {},
  "source": "// SPDX-License-Identifier: MIT\npragma solidity ^0.8.13;\n\ncontract RealEstateTransaction {\n    address payable public seller;\n    address public buyer;\n    uint256 public minPrice;\n    uint256 public offerPrice;\n    bool public offerAccepted;\n    bool public propertyTransferred;\n    bool public fundsReleased;\n\n    // Events to log actions\n    event MinPriceSet(address indexed seller, uint256 minPrice);\n    event OfferMade(address indexed buyer, uint256 offerPrice);\n    event OfferAccepted(address indexed seller, address indexed buyer, uint256 offerPrice);\n    event OfferRejected(address indexed seller, address indexed buyer, uint256 offerPrice);\n    event PropertyTransferred(address indexed seller, address indexed buyer);\n    event FundsReleased(address indexed seller, uint256 amount);\n\n    constructor(address payable _seller) {\n        seller = _seller;\n    }\n\n    // Function for seller to set minimum asking price\n    function setMinPrice(uint256 _minPrice) external {\n        require(msg.sender == seller, \"Only the seller can set the minimum price.\");\n        minPrice = _minPrice;\n        emit MinPriceSet(seller, _minPrice);\n    }\n\n    // Function to get minimum asking price\n    function getMinPrice() external view returns (uint256) {\n        return minPrice;\n    }\n\n    // Function for buyer to make an offer\n    function makeOffer() external payable {\n        require(msg.value >= minPrice, \"Offer price must be at least the minimum price.\");\n        buyer = msg.sender;\n        offerPrice = msg.value;\n        emit OfferMade(msg.sender, msg.value);\n    }\n\n    // Function for seller to get the offer details\n    function getOffer() external view returns (address, uint256) {\n        require(msg.sender == seller, \"Only the seller can call this.\");\n        return (buyer, offerPrice);\n    }\n\n    // Function for seller to accept the offer\n    function acceptOffer() external {\n        require(msg.sender == seller, \"Only the seller can accept the offer.\");\n        require(buyer != address(0), \"No offer made.\");\n        offerAccepted = true;\n        emit OfferAccepted(seller, buyer, offerPrice);\n    }\n\n    // Function for seller to reject the offer\n    function rejectOffer() external {\n        require(msg.sender == seller, \"Only the seller can reject the offer.\");\n        require(buyer != address(0), \"No offer made.\");\n        payable(buyer).transfer(offerPrice); // Refund the buyer\n        buyer = address(0);\n        offerPrice = 0;\n        emit OfferRejected(seller, buyer, offerPrice);\n    }\n\n    // Function for seller to confirm property transfer\n    function transferProperty() external {\n        require(msg.sender == seller, \"Only the seller can transfer the property.\");\n        require(offerAccepted, \"Offer must be accepted first.\");\n        propertyTransferred = true;\n        emit PropertyTransferred(seller, buyer);\n    }\n\n    // Function to release escrow funds to seller\n    function releaseFunds() external {\n        require(propertyTransferred, \"Property must be transferred first.\");\n        require(msg.sender == seller || msg.sender == buyer, \"Only buyer or seller can release funds.\");\n        payable(seller).transfer(offerPrice);\n        fundsReleased = true;\n        emit FundsReleased(seller, offerPrice);\n    }\n}\n",
  "sourcePath": "/Users/dheemanth/Desktop/blockchain_tutorial/blockchain/contracts/RealEstateTransaction.sol",
  "compiler": {
    "name": "solc",
    "version": "0.8.13+commit.abaa5c0e.Emscripten.clang"
  },
  "schemaVersion": "3.4.16",
  "updatedAt": "2024-08-03T16:32:28.505Z",
  "networkType": "ethereum",
  "devdoc": {
    "kind": "dev",
    "methods": {},
    "version": 1
  },
  "userdoc": {
    "kind": "user",
    "methods": {},
    "version": 1
  }
}